{
  "contractName": "PaymentChannel",
  "abi": [
    {
      "anonymous": false,
      "inputs": [
        {
          "indexed": true,
          "internalType": "string",
          "name": "_channelID",
          "type": "string"
        },
        {
          "indexed": false,
          "internalType": "bytes",
          "name": "join_token",
          "type": "bytes"
        }
      ],
      "name": "JoinChannelEvent",
      "type": "event"
    },
    {
      "anonymous": false,
      "inputs": [
        {
          "indexed": true,
          "internalType": "string",
          "name": "_channelID",
          "type": "string"
        },
        {
          "indexed": false,
          "internalType": "bytes",
          "name": "leave_token",
          "type": "bytes"
        }
      ],
      "name": "LeaveChannelEvent",
      "type": "event"
    },
    {
      "anonymous": false,
      "inputs": [
        {
          "indexed": true,
          "internalType": "string",
          "name": "_channelID",
          "type": "string"
        },
        {
          "indexed": false,
          "internalType": "bytes",
          "name": "open_token",
          "type": "bytes"
        }
      ],
      "name": "OpenChannelEvent",
      "type": "event"
    },
    {
      "anonymous": false,
      "inputs": [
        {
          "indexed": true,
          "internalType": "address",
          "name": "previousOwner",
          "type": "address"
        },
        {
          "indexed": true,
          "internalType": "address",
          "name": "newOwner",
          "type": "address"
        }
      ],
      "name": "OwnershipTransferred",
      "type": "event"
    },
    {
      "inputs": [
        {
          "internalType": "string",
          "name": "",
          "type": "string"
        }
      ],
      "name": "channel_list",
      "outputs": [
        {
          "internalType": "address",
          "name": "_oracleAddress",
          "type": "address"
        },
        {
          "internalType": "enum PaymentChannel.Channel_Status",
          "name": "_current_status",
          "type": "uint8"
        },
        {
          "internalType": "uint256",
          "name": "_number_of_stakeholders",
          "type": "uint256"
        }
      ],
      "stateMutability": "view",
      "type": "function",
      "constant": true
    },
    {
      "inputs": [
        {
          "internalType": "address",
          "name": "",
          "type": "address"
        }
      ],
      "name": "oracle_list",
      "outputs": [
        {
          "internalType": "bool",
          "name": "",
          "type": "bool"
        }
      ],
      "stateMutability": "view",
      "type": "function",
      "constant": true
    },
    {
      "inputs": [],
      "name": "owner",
      "outputs": [
        {
          "internalType": "address",
          "name": "",
          "type": "address"
        }
      ],
      "stateMutability": "view",
      "type": "function",
      "constant": true
    },
    {
      "inputs": [],
      "name": "renounceOwnership",
      "outputs": [],
      "stateMutability": "nonpayable",
      "type": "function"
    },
    {
      "inputs": [
        {
          "internalType": "address",
          "name": "newOwner",
          "type": "address"
        }
      ],
      "name": "transferOwnership",
      "outputs": [],
      "stateMutability": "nonpayable",
      "type": "function"
    },
    {
      "inputs": [
        {
          "internalType": "bytes",
          "name": "open_token",
          "type": "bytes"
        },
        {
          "internalType": "address[]",
          "name": "invited_list",
          "type": "address[]"
        }
      ],
      "name": "openChannel",
      "outputs": [],
      "stateMutability": "payable",
      "type": "function",
      "payable": true
    },
    {
      "inputs": [
        {
          "internalType": "string",
          "name": "channel_id",
          "type": "string"
        },
        {
          "internalType": "address",
          "name": "stakeholder",
          "type": "address"
        }
      ],
      "name": "getStakeholder",
      "outputs": [
        {
          "components": [
            {
              "internalType": "uint256",
              "name": "_balance",
              "type": "uint256"
            },
            {
              "internalType": "enum PaymentChannel.Stakeholder_Status",
              "name": "_status",
              "type": "uint8"
            }
          ],
          "internalType": "struct PaymentChannel.Stakeholder",
          "name": "",
          "type": "tuple"
        }
      ],
      "stateMutability": "view",
      "type": "function",
      "constant": true
    },
    {
      "inputs": [
        {
          "internalType": "bytes",
          "name": "join_token",
          "type": "bytes"
        }
      ],
      "name": "joinChannel",
      "outputs": [],
      "stateMutability": "payable",
      "type": "function",
      "payable": true
    },
    {
      "inputs": [
        {
          "internalType": "string",
          "name": "_channel_id",
          "type": "string"
        },
        {
          "internalType": "address",
          "name": "_invitee",
          "type": "address"
        }
      ],
      "name": "invite",
      "outputs": [],
      "stateMutability": "nonpayable",
      "type": "function"
    },
    {
      "inputs": [
        {
          "internalType": "address",
          "name": "oracle",
          "type": "address"
        },
        {
          "internalType": "bool",
          "name": "oracle_status",
          "type": "bool"
        }
      ],
      "name": "modify_oracle",
      "outputs": [],
      "stateMutability": "nonpayable",
      "type": "function"
    },
    {
      "inputs": [
        {
          "internalType": "bytes",
          "name": "leave_token",
          "type": "bytes"
        }
      ],
      "name": "leaveChannel",
      "outputs": [],
      "stateMutability": "nonpayable",
      "type": "function"
    }
  ],
  "bytecode": "0x60806040523480156200001157600080fd5b5062000032620000266200003860201b60201c565b6200004060201b60201c565b62000104565b600033905090565b60008060009054906101000a900473ffffffffffffffffffffffffffffffffffffffff169050816000806101000a81548173ffffffffffffffffffffffffffffffffffffffff021916908373ffffffffffffffffffffffffffffffffffffffff1602179055508173ffffffffffffffffffffffffffffffffffffffff168173ffffffffffffffffffffffffffffffffffffffff167f8be0079c531659141344cd1fd0a4f28419497f9722a3daafe3b4186f6b6457e060405160405180910390a35050565b61344580620001146000396000f3fe60806040526004361061009c5760003560e01c80638da5cb5b116100645780638da5cb5b146101775780639a23b183146101a2578063b366bba9146101e1578063ba0d705e1461020a578063f2fde38b14610226578063fc08a8ab1461024f5761009c565b806315a14c35146100a157806347c4ceac146100ca5780635ae4c81c14610107578063715018a61461012357806373b5f3721461013a575b600080fd5b3480156100ad57600080fd5b506100c860048036038101906100c39190611d8c565b610278565b005b3480156100d657600080fd5b506100f160048036038101906100ec9190611e31565b6102db565b6040516100fe9190611f50565b60405180910390f35b610121600480360381019061011c9190611fc1565b6103a2565b005b34801561012f57600080fd5b5061013861087f565b005b34801561014657600080fd5b50610161600480360381019061015c919061200e565b610893565b60405161016e919061204a565b60405180910390f35b34801561018357600080fd5b5061018c6108b3565b6040516101999190612074565b60405180910390f35b3480156101ae57600080fd5b506101c960048036038101906101c491906121d0565b6108dc565b6040516101d893929190612270565b60405180910390f35b3480156101ed57600080fd5b5061020860048036038101906102039190611fc1565b610949565b005b610224600480360381019061021f91906122fd565b610d29565b005b34801561023257600080fd5b5061024d6004803603810190610248919061200e565b6112a6565b005b34801561025b57600080fd5b5061027660048036038101906102719190611e31565b611329565b005b610280611650565b80600260008473ffffffffffffffffffffffffffffffffffffffff1673ffffffffffffffffffffffffffffffffffffffff16815260200190815260200160002060006101000a81548160ff0219169083151502179055505050565b6102e3611cb6565b6000600185856040516102f79291906123ae565b908152602001604051809103902090508060010160008473ffffffffffffffffffffffffffffffffffffffff1673ffffffffffffffffffffffffffffffffffffffff168152602001908152602001600020604051806040016040529081600082015481526020016001820160009054906101000a900460ff16600281111561038257610381611eaa565b5b600281111561039457610393611eaa565b5b815250509150509392505050565b600080600084848101906103b69190612468565b93509350509250600080600080868060200190518101906103d791906127a9565b935093509350935060028460ff1614610425576040517f08c379a000000000000000000000000000000000000000000000000000000000815260040161041c906128cb565b60405180910390fd5b6000610430886116ce565b905061043c8188611709565b73ffffffffffffffffffffffffffffffffffffffff168273ffffffffffffffffffffffffffffffffffffffff161461047357600080fd5b3373ffffffffffffffffffffffffffffffffffffffff168273ffffffffffffffffffffffffffffffffffffffff16146104ab57600080fd5b60006104bf6104b98a6116ce565b88611709565b905060011515600260008373ffffffffffffffffffffffffffffffffffffffff1673ffffffffffffffffffffffffffffffffffffffff16815260200190815260200160002060009054906101000a900460ff16151514610554576040517f08c379a000000000000000000000000000000000000000000000000000000000815260040161054b9061295d565b60405180910390fd5b600060018660405161056691906129b9565b908152602001604051809103902090506001600281111561058a57610589611eaa565b5b8160020160009054906101000a900460ff1660028111156105ae576105ad611eaa565b5b146105ee576040517f08c379a00000000000000000000000000000000000000000000000000000000081526004016105e590612a42565b60405180910390fd5b6001600281111561060257610601611eaa565b5b8160010160008673ffffffffffffffffffffffffffffffffffffffff1673ffffffffffffffffffffffffffffffffffffffff16815260200190815260200160002060010160009054906101000a900460ff16600281111561066657610665611eaa565b5b1480156106b7575060008160010160008673ffffffffffffffffffffffffffffffffffffffff1673ffffffffffffffffffffffffffffffffffffffff16815260200190815260200160002060000154145b6106f6576040517f08c379a00000000000000000000000000000000000000000000000000000000081526004016106ed90612afa565b60405180910390fd5b348560008151811061070b5761070a612b1a565b5b6020026020010151602001511480156107245750600034115b610763576040517f08c379a000000000000000000000000000000000000000000000000000000000815260040161075a90612c07565b60405180910390fd5b80600301600081548092919061077890612c56565b919050555060405180604001604052803481526020016002808111156107a1576107a0611eaa565b5b8152508160010160008673ffffffffffffffffffffffffffffffffffffffff1673ffffffffffffffffffffffffffffffffffffffff1681526020019081526020016000206000820151816000015560208201518160010160006101000a81548160ff0219169083600281111561081a57610819611eaa565b5b02179055509050508560405161083091906129b9565b60405180910390207f8bcbf84e99a3dc62540fa7c1743c5201d6192a95b0e3ada10bbe0cea9e74fede8d8d604051610869929190612cdc565b60405180910390a2505050505050505050505050565b610887611650565b6108916000611730565b565b60026020528060005260406000206000915054906101000a900460ff1681565b60008060009054906101000a900473ffffffffffffffffffffffffffffffffffffffff16905090565b6001818051602081018201805184825260208301602085012081835280955050505050506000915090508060000160009054906101000a900473ffffffffffffffffffffffffffffffffffffffff16908060020160009054906101000a900460ff16908060030154905083565b6000806000848481019061095d9190612468565b935093505092506000806000808680602001905181019061097e91906127a9565b935093509350935060048460ff16146109cc576040517f08c379a00000000000000000000000000000000000000000000000000000000081526004016109c3906128cb565b60405180910390fd5b60006109d7886116ce565b90506109e38188611709565b73ffffffffffffffffffffffffffffffffffffffff168273ffffffffffffffffffffffffffffffffffffffff1614610a1a57600080fd5b3373ffffffffffffffffffffffffffffffffffffffff168273ffffffffffffffffffffffffffffffffffffffff1614610a5257600080fd5b6000610a66610a608a6116ce565b88611709565b905060011515600260008373ffffffffffffffffffffffffffffffffffffffff1673ffffffffffffffffffffffffffffffffffffffff16815260200190815260200160002060009054906101000a900460ff16151514610afb576040517f08c379a0000000000000000000000000000000000000000000000000000000008152600401610af29061295d565b60405180910390fd5b6000600186604051610b0d91906129b9565b9081526020016040518091039020905060016002811115610b3157610b30611eaa565b5b8160020160009054906101000a900460ff166002811115610b5557610b54611eaa565b5b14610b95576040517f08c379a0000000000000000000000000000000000000000000000000000000008152600401610b8c90612a42565b60405180910390fd5b806003016000815480929190610baa90612d00565b919050555060008160010160008673ffffffffffffffffffffffffffffffffffffffff1673ffffffffffffffffffffffffffffffffffffffff16815260200190815260200160002060010160006101000a81548160ff02191690836002811115610c1757610c16611eaa565b5b021790555060008160010160008673ffffffffffffffffffffffffffffffffffffffff1673ffffffffffffffffffffffffffffffffffffffff168152602001908152602001600020600001819055508373ffffffffffffffffffffffffffffffffffffffff166108fc86600081518110610c9457610c93612b1a565b5b6020026020010151602001519081150290604051600060405180830381858888f19350505050158015610ccb573d6000803e3d6000fd5b5085604051610cda91906129b9565b60405180910390207f1c8ea513d3c0cf95e440a0a622d5b4b6bc3a499060f81af88f204b7ccc8d173c8d8d604051610d13929190612cdc565b60405180910390a2505050505050505050505050565b60008060008686810190610d3d9190612468565b9350935050925060008060008086806020019051810190610d5e91906127a9565b935093509350935060018460ff1614610dac576040517f08c379a0000000000000000000000000000000000000000000000000000000008152600401610da3906128cb565b60405180910390fd5b6000600184604051610dbe91906129b9565b9081526020016040518091039020905060006002811115610de257610de1611eaa565b5b8160020160009054906101000a900460ff166002811115610e0657610e05611eaa565b5b14610e46576040517f08c379a0000000000000000000000000000000000000000000000000000000008152600401610e3d90612d9b565b60405180910390fd5b6000610e51896116ce565b9050610e5d8189611709565b73ffffffffffffffffffffffffffffffffffffffff168373ffffffffffffffffffffffffffffffffffffffff1614610e9457600080fd5b3373ffffffffffffffffffffffffffffffffffffffff168373ffffffffffffffffffffffffffffffffffffffff1614610ecc57600080fd5b6000610ee0610eda8b6116ce565b89611709565b905060011515600260008373ffffffffffffffffffffffffffffffffffffffff1673ffffffffffffffffffffffffffffffffffffffff16815260200190815260200160002060009054906101000a900460ff16151514610f75576040517f08c379a0000000000000000000000000000000000000000000000000000000008152600401610f6c9061295d565b60405180910390fd5b60048c8c905010610fbb576040517f08c379a0000000000000000000000000000000000000000000000000000000008152600401610fb290612e2d565b60405180910390fd5b3485600081518110610fd057610fcf612b1a565b5b602002602001015160200151148015610fe95750600034115b611028576040517f08c379a000000000000000000000000000000000000000000000000000000000815260040161101f90612c07565b60405180910390fd5b604051806040016040528034815260200160028081111561104c5761104b611eaa565b5b8152508360010160008673ffffffffffffffffffffffffffffffffffffffff1673ffffffffffffffffffffffffffffffffffffffff1681526020019081526020016000206000820151816000015560208201518160010160006101000a81548160ff021916908360028111156110c5576110c4611eaa565b5b0217905550905050808360000160006101000a81548173ffffffffffffffffffffffffffffffffffffffff021916908373ffffffffffffffffffffffffffffffffffffffff16021790555082600301600081548092919061112590612c56565b919050555060018360020160006101000a81548160ff0219169083600281111561115257611151611eaa565b5b021790555060005b8c8c9050811015611246576040518060400160405280600081526020016001600281111561118b5761118a611eaa565b5b8152508460010160008f8f858181106111a7576111a6612b1a565b5b90506020020160208101906111bc919061200e565b73ffffffffffffffffffffffffffffffffffffffff1673ffffffffffffffffffffffffffffffffffffffff1681526020019081526020016000206000820151816000015560208201518160010160006101000a81548160ff0219169083600281111561122b5761122a611eaa565b5b0217905550905050808061123e90612c56565b91505061115a565b508560405161125591906129b9565b60405180910390207f51086f4bc11c3dacdcf04061cef37cfd9d6846bddadddef2e528820afffd603b8f8f60405161128e929190612cdc565b60405180910390a25050505050505050505050505050565b6112ae611650565b600073ffffffffffffffffffffffffffffffffffffffff168173ffffffffffffffffffffffffffffffffffffffff160361131d576040517f08c379a000000000000000000000000000000000000000000000000000000000815260040161131490612ebf565b60405180910390fd5b61132681611730565b50565b60006001848460405161133d9291906123ae565b908152602001604051809103902090506001600281111561136157611360611eaa565b5b8160020160009054906101000a900460ff16600281111561138557611384611eaa565b5b146113c5576040517f08c379a00000000000000000000000000000000000000000000000000000000081526004016113bc90612f2b565b60405180910390fd5b6002808111156113d8576113d7611eaa565b5b8160010160003373ffffffffffffffffffffffffffffffffffffffff1673ffffffffffffffffffffffffffffffffffffffff16815260200190815260200160002060010160009054906101000a900460ff16600281111561143c5761143b611eaa565b5b1461147c576040517f08c379a000000000000000000000000000000000000000000000000000000000815260040161147390612fbd565b60405180910390fd5b600073ffffffffffffffffffffffffffffffffffffffff168273ffffffffffffffffffffffffffffffffffffffff16036114eb576040517f08c379a00000000000000000000000000000000000000000000000000000000081526004016114e290613029565b60405180910390fd5b600060028111156114ff576114fe611eaa565b5b8160010160008473ffffffffffffffffffffffffffffffffffffffff1673ffffffffffffffffffffffffffffffffffffffff16815260200190815260200160002060010160009054906101000a900460ff16600281111561156357611562611eaa565b5b146115a3576040517f08c379a000000000000000000000000000000000000000000000000000000000815260040161159a906130bb565b60405180910390fd5b604051806040016040528060008152602001600160028111156115c9576115c8611eaa565b5b8152508160010160008473ffffffffffffffffffffffffffffffffffffffff1673ffffffffffffffffffffffffffffffffffffffff1681526020019081526020016000206000820151816000015560208201518160010160006101000a81548160ff0219169083600281111561164257611641611eaa565b5b021790555090505050505050565b6116586117f4565b73ffffffffffffffffffffffffffffffffffffffff166116766108b3565b73ffffffffffffffffffffffffffffffffffffffff16146116cc576040517f08c379a00000000000000000000000000000000000000000000000000000000081526004016116c390613127565b60405180910390fd5b565b60006116da82516117fc565b826040516020016116ec9291906131da565b604051602081830303815290604052805190602001209050919050565b600080600061171885856118ca565b915091506117258161191b565b819250505092915050565b60008060009054906101000a900473ffffffffffffffffffffffffffffffffffffffff169050816000806101000a81548173ffffffffffffffffffffffffffffffffffffffff021916908373ffffffffffffffffffffffffffffffffffffffff1602179055508173ffffffffffffffffffffffffffffffffffffffff168173ffffffffffffffffffffffffffffffffffffffff167f8be0079c531659141344cd1fd0a4f28419497f9722a3daafe3b4186f6b6457e060405160405180910390a35050565b600033905090565b60606000600161180b84611a81565b01905060008167ffffffffffffffff81111561182a576118296120a5565b5b6040519080825280601f01601f19166020018201604052801561185c5781602001600182028036833780820191505090505b509050600082602001820190505b6001156118bf578080600190039150507f3031323334353637383961626364656600000000000000000000000000000000600a86061a8153600a85816118b3576118b2613209565b5b0494506000850361186a575b819350505050919050565b600080604183510361190b5760008060006020860151925060408601519150606086015160001a90506118ff87828585611bd4565b94509450505050611914565b60006002915091505b9250929050565b6000600481111561192f5761192e611eaa565b5b81600481111561194257611941611eaa565b5b0315611a7e576001600481111561195c5761195b611eaa565b5b81600481111561196f5761196e611eaa565b5b036119af576040517f08c379a00000000000000000000000000000000000000000000000000000000081526004016119a690613284565b60405180910390fd5b600260048111156119c3576119c2611eaa565b5b8160048111156119d6576119d5611eaa565b5b03611a16576040517f08c379a0000000000000000000000000000000000000000000000000000000008152600401611a0d906132f0565b60405180910390fd5b60036004811115611a2a57611a29611eaa565b5b816004811115611a3d57611a3c611eaa565b5b03611a7d576040517f08c379a0000000000000000000000000000000000000000000000000000000008152600401611a7490613382565b60405180910390fd5b5b50565b600080600090507a184f03e93ff9f4daa797ed6e38ed64bf6a1f0100000000000000008310611adf577a184f03e93ff9f4daa797ed6e38ed64bf6a1f0100000000000000008381611ad557611ad4613209565b5b0492506040810190505b6d04ee2d6d415b85acef81000000008310611b1c576d04ee2d6d415b85acef81000000008381611b1257611b11613209565b5b0492506020810190505b662386f26fc100008310611b4b57662386f26fc100008381611b4157611b40613209565b5b0492506010810190505b6305f5e1008310611b74576305f5e1008381611b6a57611b69613209565b5b0492506008810190505b6127108310611b99576127108381611b8f57611b8e613209565b5b0492506004810190505b60648310611bbc5760648381611bb257611bb1613209565b5b0492506002810190505b600a8310611bcb576001810190505b80915050919050565b6000807f7fffffffffffffffffffffffffffffff5d576e7357a4501ddfe92f46681b20a08360001c1115611c0f576000600391509150611cad565b600060018787878760405160008152602001604052604051611c3494939291906133ca565b6020604051602081039080840390855afa158015611c56573d6000803e3d6000fd5b505050602060405103519050600073ffffffffffffffffffffffffffffffffffffffff168173ffffffffffffffffffffffffffffffffffffffff1603611ca457600060019250925050611cad565b80600092509250505b94509492505050565b60405180604001604052806000815260200160006002811115611cdc57611cdb611eaa565b5b81525090565b6000604051905090565b600080fd5b600080fd5b600073ffffffffffffffffffffffffffffffffffffffff82169050919050565b6000611d2182611cf6565b9050919050565b611d3181611d16565b8114611d3c57600080fd5b50565b600081359050611d4e81611d28565b92915050565b60008115159050919050565b611d6981611d54565b8114611d7457600080fd5b50565b600081359050611d8681611d60565b92915050565b60008060408385031215611da357611da2611cec565b5b6000611db185828601611d3f565b9250506020611dc285828601611d77565b9150509250929050565b600080fd5b600080fd5b600080fd5b60008083601f840112611df157611df0611dcc565b5b8235905067ffffffffffffffff811115611e0e57611e0d611dd1565b5b602083019150836001820283011115611e2a57611e29611dd6565b5b9250929050565b600080600060408486031215611e4a57611e49611cec565b5b600084013567ffffffffffffffff811115611e6857611e67611cf1565b5b611e7486828701611ddb565b93509350506020611e8786828701611d3f565b9150509250925092565b6000819050919050565b611ea481611e91565b82525050565b7f4e487b7100000000000000000000000000000000000000000000000000000000600052602160045260246000fd5b60038110611eea57611ee9611eaa565b5b50565b6000819050611efb82611ed9565b919050565b6000611f0b82611eed565b9050919050565b611f1b81611f00565b82525050565b604082016000820151611f376000850182611e9b565b506020820151611f4a6020850182611f12565b50505050565b6000604082019050611f656000830184611f21565b92915050565b60008083601f840112611f8157611f80611dcc565b5b8235905067ffffffffffffffff811115611f9e57611f9d611dd1565b5b602083019150836001820283011115611fba57611fb9611dd6565b5b9250929050565b60008060208385031215611fd857611fd7611cec565b5b600083013567ffffffffffffffff811115611ff657611ff5611cf1565b5b61200285828601611f6b565b92509250509250929050565b60006020828403121561202457612023611cec565b5b600061203284828501611d3f565b91505092915050565b61204481611d54565b82525050565b600060208201905061205f600083018461203b565b92915050565b61206e81611d16565b82525050565b60006020820190506120896000830184612065565b92915050565b600080fd5b6000601f19601f8301169050919050565b7f4e487b7100000000000000000000000000000000000000000000000000000000600052604160045260246000fd5b6120dd82612094565b810181811067ffffffffffffffff821117156120fc576120fb6120a5565b5b80604052505050565b600061210f611ce2565b905061211b82826120d4565b919050565b600067ffffffffffffffff82111561213b5761213a6120a5565b5b61214482612094565b9050602081019050919050565b82818337600083830152505050565b600061217361216e84612120565b612105565b90508281526020810184848401111561218f5761218e61208f565b5b61219a848285612151565b509392505050565b600082601f8301126121b7576121b6611dcc565b5b81356121c7848260208601612160565b91505092915050565b6000602082840312156121e6576121e5611cec565b5b600082013567ffffffffffffffff81111561220457612203611cf1565b5b612210848285016121a2565b91505092915050565b6003811061222a57612229611eaa565b5b50565b600081905061223b82612219565b919050565b600061224b8261222d565b9050919050565b61225b81612240565b82525050565b61226a81611e91565b82525050565b60006060820190506122856000830186612065565b6122926020830185612252565b61229f6040830184612261565b949350505050565b60008083601f8401126122bd576122bc611dcc565b5b8235905067ffffffffffffffff8111156122da576122d9611dd1565b5b6020830191508360208202830111156122f6576122f5611dd6565b5b9250929050565b6000806000806040858703121561231757612316611cec565b5b600085013567ffffffffffffffff81111561233557612334611cf1565b5b61234187828801611f6b565b9450945050602085013567ffffffffffffffff81111561236457612363611cf1565b5b612370878288016122a7565b925092505092959194509250565b600081905092915050565b6000612395838561237e565b93506123a2838584612151565b82840190509392505050565b60006123bb828486612389565b91508190509392505050565b600067ffffffffffffffff8211156123e2576123e16120a5565b5b6123eb82612094565b9050602081019050919050565b600061240b612406846123c7565b612105565b9050828152602081018484840111156124275761242661208f565b5b612432848285612151565b509392505050565b600082601f83011261244f5761244e611dcc565b5b813561245f8482602086016123f8565b91505092915050565b6000806000806080858703121561248257612481611cec565b5b600085013567ffffffffffffffff8111156124a05761249f611cf1565b5b6124ac8782880161243a565b945050602085013567ffffffffffffffff8111156124cd576124cc611cf1565b5b6124d9878288016121a2565b935050604085013567ffffffffffffffff8111156124fa576124f9611cf1565b5b6125068782880161243a565b925050606085013567ffffffffffffffff81111561252757612526611cf1565b5b6125338782880161243a565b91505092959194509250565b600060ff82169050919050565b6125558161253f565b811461256057600080fd5b50565b6000815190506125728161254c565b92915050565b60005b8381101561259657808201518184015260208101905061257b565b60008484015250505050565b60006125b56125b084612120565b612105565b9050828152602081018484840111156125d1576125d061208f565b5b6125dc848285612578565b509392505050565b600082601f8301126125f9576125f8611dcc565b5b81516126098482602086016125a2565b91505092915050565b600067ffffffffffffffff82111561262d5761262c6120a5565b5b602082029050602081019050919050565b600080fd5b60008151905061265281611d28565b92915050565b61266181611e91565b811461266c57600080fd5b50565b60008151905061267e81612658565b92915050565b60006040828403121561269a5761269961263e565b5b6126a46040612105565b905060006126b484828501612643565b60008301525060206126c88482850161266f565b60208301525092915050565b60006126e76126e284612612565b612105565b9050808382526020820190506040840283018581111561270a57612709611dd6565b5b835b81811015612733578061271f8882612684565b84526020840193505060408101905061270c565b5050509392505050565b600082601f83011261275257612751611dcc565b5b81516127628482602086016126d4565b91505092915050565b600061277682611cf6565b9050919050565b6127868161276b565b811461279157600080fd5b50565b6000815190506127a38161277d565b92915050565b600080600080608085870312156127c3576127c2611cec565b5b60006127d187828801612563565b945050602085015167ffffffffffffffff8111156127f2576127f1611cf1565b5b6127fe878288016125e4565b935050604085015167ffffffffffffffff81111561281f5761281e611cf1565b5b61282b8782880161273d565b925050606061283c87828801612794565b91505092959194509250565b600082825260208201905092915050565b7f416374696f6e207479706520646566696e65642077697468696e20746f6b656e60008201527f2069732077726f6e670000000000000000000000000000000000000000000000602082015250565b60006128b5602983612848565b91506128c082612859565b604082019050919050565b600060208201905081810360008301526128e4816128a8565b9050919050565b7f4f7261636c652074686174207369676e6564206f70656e5f746f6b656e20697360008201527f206e6f7420617574686f72697a65640000000000000000000000000000000000602082015250565b6000612947602f83612848565b9150612952826128eb565b604082019050919050565b600060208201905081810360008301526129768161293a565b9050919050565b600081519050919050565b60006129938261297d565b61299d818561237e565b93506129ad818560208601612578565b80840191505092915050565b60006129c58284612988565b915081905092915050565b7f4368616e6e656c20776974682070726f7669646564206368616e6e656c20696460008201527f206973206e6f74206f70656e6564000000000000000000000000000000000000602082015250565b6000612a2c602e83612848565b9150612a37826129d0565b604082019050919050565b60006020820190508181036000830152612a5b81612a1f565b9050919050565b7f5374616b65686f6c646572206973206e6f7420696e766974656420746f20746860008201527f6973206368616e6e656c206f72205374616b65686f6c64657220616c7265616460208201527f79206a6f696e65642074686973206368616e6e656c0000000000000000000000604082015250565b6000612ae4605583612848565b9150612aef82612a62565b606082019050919050565b60006020820190508181036000830152612b1381612ad7565b9050919050565b7f4e487b7100000000000000000000000000000000000000000000000000000000600052603260045260246000fd5b7f416d6f756e74206f662063727970746f20646566696e65642077697468696e2060008201527f6f70656e5f746f6b656e206973206e6f74207468652073616d6520617320707260208201527f6f766964656420286d73672e2076616c756529206f72206d73672e76616c756560408201527f20213e3000000000000000000000000000000000000000000000000000000000606082015250565b6000612bf1606483612848565b9150612bfc82612b49565b608082019050919050565b60006020820190508181036000830152612c2081612be4565b9050919050565b7f4e487b7100000000000000000000000000000000000000000000000000000000600052601160045260246000fd5b6000612c6182611e91565b91507fffffffffffffffffffffffffffffffffffffffffffffffffffffffffffffffff8203612c9357612c92612c27565b5b600182019050919050565b600082825260208201905092915050565b6000612cbb8385612c9e565b9350612cc8838584612151565b612cd183612094565b840190509392505050565b60006020820190508181036000830152612cf7818486612caf565b90509392505050565b6000612d0b82611e91565b915060008203612d1e57612d1d612c27565b5b600182039050919050565b7f4368616e6e656c20776974682070726f7669646564206e616d652f6368616e6e60008201527f656c20696420616c726561647920657869737400000000000000000000000000602082015250565b6000612d85603383612848565b9150612d9082612d29565b604082019050919050565b60006020820190508181036000830152612db481612d78565b9050919050565b7f4e756d626572206f6620696e7669746564207374616b65686f6c64657273206960008201527f7320746f6f206869676820284d61782e20342900000000000000000000000000602082015250565b6000612e17603383612848565b9150612e2282612dbb565b604082019050919050565b60006020820190508181036000830152612e4681612e0a565b9050919050565b7f4f776e61626c653a206e6577206f776e657220697320746865207a65726f206160008201527f6464726573730000000000000000000000000000000000000000000000000000602082015250565b6000612ea9602683612848565b9150612eb482612e4d565b604082019050919050565b60006020820190508181036000830152612ed881612e9c565b9050919050565b7f4368616e6e656c206973206e6f74206f70656e65640000000000000000000000600082015250565b6000612f15601583612848565b9150612f2082612edf565b602082019050919050565b60006020820190508181036000830152612f4481612f08565b9050919050565b7f5374616b65686f6c6465722077686f20697320696e766974696e67206973206e60008201527f6f74206163746976650000000000000000000000000000000000000000000000602082015250565b6000612fa7602983612848565b9150612fb282612f4b565b604082019050919050565b60006020820190508181036000830152612fd681612f9a565b9050919050565b7f57726f6e67206164647265737300000000000000000000000000000000000000600082015250565b6000613013600d83612848565b915061301e82612fdd565b602082019050919050565b6000602082019050818103600083015261304281613006565b9050919050565b7f496e76697465652077617320616c726561647920696e7669746564206f72206160008201527f63746976652077697468696e2074686973206368616e6e656c00000000000000602082015250565b60006130a5603983612848565b91506130b082613049565b604082019050919050565b600060208201905081810360008301526130d481613098565b9050919050565b7f4f776e61626c653a2063616c6c6572206973206e6f7420746865206f776e6572600082015250565b6000613111602083612848565b915061311c826130db565b602082019050919050565b6000602082019050818103600083015261314081613104565b9050919050565b7f19457468657265756d205369676e6564204d6573736167653a0a000000000000600082015250565b600061317d601a8361237e565b915061318882613147565b601a82019050919050565b600081519050919050565b600081905092915050565b60006131b482613193565b6131be818561319e565b93506131ce818560208601612578565b80840191505092915050565b60006131e582613170565b91506131f18285612988565b91506131fd82846131a9565b91508190509392505050565b7f4e487b7100000000000000000000000000000000000000000000000000000000600052601260045260246000fd5b7f45434453413a20696e76616c6964207369676e61747572650000000000000000600082015250565b600061326e601883612848565b915061327982613238565b602082019050919050565b6000602082019050818103600083015261329d81613261565b9050919050565b7f45434453413a20696e76616c6964207369676e6174757265206c656e67746800600082015250565b60006132da601f83612848565b91506132e5826132a4565b602082019050919050565b60006020820190508181036000830152613309816132cd565b9050919050565b7f45434453413a20696e76616c6964207369676e6174757265202773272076616c60008201527f7565000000000000000000000000000000000000000000000000000000000000602082015250565b600061336c602283612848565b915061337782613310565b604082019050919050565b6000602082019050818103600083015261339b8161335f565b9050919050565b6000819050919050565b6133b5816133a2565b82525050565b6133c48161253f565b82525050565b60006080820190506133df60008301876133ac565b6133ec60208301866133bb565b6133f960408301856133ac565b61340660608301846133ac565b9594505050505056fea2646970667358221220fa8476cd35b05b71a0aef05e5ca085ef8d0cc1bee8953e21e4475bb136bb378b64736f6c63430008100033",
  "immutableReferences": {},
  "source": "// SPDX-License-Identifier: MIT\r\npragma solidity ^0.8.0;\r\nimport \"@openzeppelin/contracts/utils/math/SafeMath.sol\";\r\nimport \"@openzeppelin/contracts/access/Ownable.sol\";\r\nimport \"@openzeppelin/contracts/utils/cryptography/ECDSA.sol\";\r\n\r\n// Error list\r\nerror NotInvited(address sender);\r\nerror AlreadyPartOfChannel(address sender);\r\nerror CloseNoSignatureStakeholder();\r\nerror NotPartOfChannel(address sender);\r\nerror AlreadyInvited(address invitee);\r\n\r\n/**\r\n *@title Factory contract for creating new payment channels\r\n */\r\ncontract PaymentChannel is Ownable {\r\n    // event list\r\n    event OpenChannelEvent(\r\n        string indexed _channelID,\r\n        bytes open_token\r\n    );\r\n\r\n    // action: OPEN, JOIN, TX, LEAVE (uint8 - 1, 2 ,3, 4)\r\n\r\n    event JoinChannelEvent(\r\n        string indexed _channelID,\r\n        bytes join_token\r\n    );\r\n\r\n    event LeaveChannelEvent(\r\n        string indexed _channelID,\r\n        bytes leave_token\r\n    );\r\n\r\n    // import SafeMath lib for uint operations\r\n    using SafeMath for uint256;\r\n    using ECDSA for *;\r\n\r\n    // enum list\r\n    enum Channel_Status {\r\n        UNDEFINED,\r\n        OPENED,\r\n        CLOSED\r\n    } // 0 = UNDEFINED; 1 = OPENED; 2 = CLOSED\r\n    enum Stakeholder_Status {\r\n        UNDEFINED,\r\n        INVITED,\r\n        ACTIVE\r\n    } // 0 = UNDEFINED; 1 = INVITED; 2 = ACTIVE;\r\n\r\n    // Channel struct\r\n    struct Channel {\r\n        address _oracleAddress; // address of oracle\r\n        mapping(address => Stakeholder) _stakeholders; // address of stakeholder ponts to struct of Stakeholder\r\n        Channel_Status _current_status; // current state of channel\r\n        uint256 _number_of_stakeholders; // number of channel stakeholders\r\n    }\r\n\r\n    struct Stakeholder {\r\n        uint256 _balance; // balance of stakeholder\r\n        Stakeholder_Status _status; // stakeholder status\r\n    }\r\n\r\n    struct State {\r\n        address _address;\r\n        uint256 _balance;\r\n    }\r\n\r\n    // name of the channel points to Cahnnel\r\n    mapping(string => Channel) public channel_list;\r\n    // list of payment channel oracles\r\n    mapping(address => bool) public oracle_list;\r\n\r\n    function openChannel(\r\n        bytes calldata open_token,\r\n        address[] calldata invited_list\r\n    ) public payable {\r\n        // Decode open_token\r\n        (\r\n            bytes memory _open_token_data,\r\n            ,\r\n            bytes memory _sender_sig,\r\n            bytes memory _oracle_sig\r\n        ) = abi.decode(open_token, (bytes, string, bytes, bytes));\r\n\r\n        (\r\n            uint8  _action,\r\n            string memory _channel_id,\r\n            State[] memory _state,\r\n            address _sender\r\n        ) = abi.decode(_open_token_data, (uint8, string, State[], address));\r\n\r\n        require(_action == 1, \"Action type defined within token is wrong\");\r\n\r\n        // Create object of _temp_channel\r\n        Channel storage _temp_channel = channel_list[_channel_id];\r\n\r\n        // Check if the channel with provided name does not exist already\r\n        require(\r\n            _temp_channel._current_status == Channel_Status.UNDEFINED,\r\n            \"Channel with provided name/channel id already exist\"\r\n        );\r\n\r\n        // Validate signature of sender\r\n        bytes32 _contentHash = ECDSA.toEthSignedMessageHash(_open_token_data);\r\n        require(_sender == ECDSA.recover(_contentHash, _sender_sig));\r\n        // Validate sender provided in encoded data is equal to msg.sender\r\n        require(_sender == msg.sender);\r\n\r\n        // Validate signature of oracle\r\n        address _oracleAddress = ECDSA.recover(ECDSA.toEthSignedMessageHash(_open_token_data), _oracle_sig);\r\n\r\n        // Aforementioned channel id must be signed by one of the oracle's that are on list\r\n        require(\r\n            oracle_list[_oracleAddress] == true,\r\n            \"Oracle that signed open_token is not authorized\"\r\n        );\r\n\r\n        // Currently stakeholder that open payment channel can invite max. 4 other stakeholders\r\n        require(\r\n            invited_list.length < 4,\r\n            \"Number of invited stakeholders is too high (Max. 4)\"\r\n        );\r\n\r\n        require(\r\n            _state[0]._balance == msg.value &&  msg.value > 0,\r\n            \"Amount of crypto defined within open_token is not the same as provided (msg. value) or msg.value !>0\"\r\n        );\r\n\r\n        // Assign values\r\n        _temp_channel._stakeholders[_sender] = Stakeholder(\r\n            msg.value, // \r\n            Stakeholder_Status.ACTIVE\r\n        );\r\n        _temp_channel._oracleAddress = _oracleAddress;\r\n        _temp_channel._number_of_stakeholders++;\r\n        _temp_channel._current_status = Channel_Status.OPENED;\r\n\r\n        // Assign invited list\r\n        for (uint256 i = 0; i < invited_list.length; i++) {\r\n            _temp_channel._stakeholders[invited_list[i]] = Stakeholder(\r\n                0, // balance\r\n                Stakeholder_Status.INVITED // status\r\n            );\r\n        }\r\n\r\n        emit OpenChannelEvent(_channel_id, open_token);\r\n    }\r\n\r\n    function getStakeholder(string calldata channel_id, address stakeholder)\r\n        public\r\n        view\r\n        returns (Stakeholder memory)\r\n    {\r\n        Channel storage _temp_channel = channel_list[channel_id];\r\n        return _temp_channel._stakeholders[stakeholder];\r\n    }\r\n\r\n    function joinChannel(bytes calldata join_token) external payable {\r\n       \r\n        // Decode join_token\r\n        (\r\n            bytes memory _join_token_data,\r\n            ,\r\n            bytes memory _sender_sig,\r\n            bytes memory _oracle_sig\r\n        ) = abi.decode(join_token, (bytes, string, bytes, bytes));\r\n\r\n        (\r\n            uint8  _action,\r\n            string memory _channel_id,\r\n            State[] memory _state,\r\n            address _sender\r\n        ) = abi.decode(_join_token_data, (uint8, string, State[], address));\r\n\r\n        require(_action == 2, \"Action type defined within token is wrong\"); // 2 = join\r\n\r\n        // Validate signature of sender\r\n        bytes32 _contentHash = ECDSA.toEthSignedMessageHash(_join_token_data);\r\n        require(_sender == ECDSA.recover(_contentHash, _sender_sig));\r\n        // Validate sender provided in encoded data is equal to msg.sender\r\n        require(_sender == msg.sender);\r\n\r\n        // Validate signature of oracle\r\n        address _oracleAddress = ECDSA.recover(ECDSA.toEthSignedMessageHash(_join_token_data), _oracle_sig);\r\n\r\n        // Aforementioned channel id must be signed by one of the oracle's that are on list\r\n        require(\r\n            oracle_list[_oracleAddress] == true,\r\n            \"Oracle that signed open_token is not authorized\"\r\n        );\r\n\r\n        Channel storage _temp_channel = channel_list[_channel_id];\r\n        \r\n        require(\r\n            _temp_channel._current_status == Channel_Status.OPENED,\r\n            \"Channel with provided channel id is not opened\"\r\n        );\r\n\r\n        require(\r\n            _temp_channel._stakeholders[_sender]._status ==\r\n                Stakeholder_Status.INVITED && _temp_channel._stakeholders[_sender]._balance == 0,\r\n            \"Stakeholder is not invited to this channel or Stakeholder already joined this channel\"\r\n        );\r\n\r\n        require(\r\n            _state[0]._balance == msg.value &&  msg.value > 0,\r\n            \"Amount of crypto defined within open_token is not the same as provided (msg. value) or msg.value !>0\"\r\n        );\r\n\r\n        // Assign values to stakeholder who is joining\r\n        _temp_channel._number_of_stakeholders++;\r\n        _temp_channel._stakeholders[_sender] = Stakeholder(\r\n            msg.value, // balance\r\n            Stakeholder_Status.ACTIVE // status\r\n        );\r\n\r\n        // To be \"catched\" by the oracle\r\n        emit JoinChannelEvent(_channel_id, join_token);\r\n    }\r\n\r\n    function invite(string calldata _channel_id, address _invitee) external {\r\n        // find channel\r\n        Channel storage _temp_channel = channel_list[_channel_id];\r\n\r\n        // check that channel is opened\r\n        require(\r\n            _temp_channel._current_status == Channel_Status.OPENED,\r\n            \"Channel is not opened\"\r\n        );\r\n\r\n        // stakeholder must be active\r\n        require(\r\n            _temp_channel._stakeholders[msg.sender]._status ==\r\n                Stakeholder_Status.ACTIVE,\r\n            \"Stakeholder who is inviting is not active\"\r\n        );\r\n\r\n        // validacija vhodnih podatkov\r\n        require(_invitee != 0x0000000000000000000000000000000000000000, \"Wrong address\");\r\n        require(\r\n            _temp_channel._stakeholders[_invitee]._status ==\r\n                Stakeholder_Status.UNDEFINED,\r\n                \"Invitee was already invited or active within this channel\"\r\n        );\r\n\r\n        // assign values\r\n        _temp_channel._stakeholders[_invitee] = Stakeholder(\r\n            0,\r\n            Stakeholder_Status.INVITED\r\n        );\r\n    }\r\n\r\n    function modify_oracle(address oracle, bool oracle_status)\r\n        public\r\n        onlyOwner\r\n    {\r\n        oracle_list[oracle] = oracle_status;\r\n    }\r\n\r\n    function leaveChannel(bytes calldata leave_token) external {\r\n        // Decode leave_token\r\n        (\r\n            bytes memory _leave_token_data,\r\n            ,\r\n            bytes memory _sender_sig,\r\n            bytes memory _oracle_sig\r\n        ) = abi.decode(leave_token, (bytes, string, bytes, bytes));\r\n\r\n        (\r\n            uint8  _action,\r\n            string memory _channel_id,\r\n            State[] memory _state,\r\n            address _sender\r\n        ) = abi.decode(_leave_token_data, (uint8, string, State[], address));\r\n\r\n        require(_action == 4, \"Action type defined within token is wrong\"); // 4 = join\r\n\r\n        // Validate signature of sender\r\n        bytes32 _contentHash = ECDSA.toEthSignedMessageHash(_leave_token_data);\r\n        require(_sender == ECDSA.recover(_contentHash, _sender_sig));\r\n        // Validate sender provided in encoded data is equal to msg.sender\r\n        require(_sender == msg.sender);\r\n\r\n        // Validate signature of oracle\r\n        address _oracleAddress = ECDSA.recover(ECDSA.toEthSignedMessageHash(_leave_token_data), _oracle_sig);\r\n\r\n        // Aforementioned channel id must be signed by one of the oracle's that are on list\r\n        require(\r\n            oracle_list[_oracleAddress] == true,\r\n            \"Oracle that signed open_token is not authorized\"\r\n        );\r\n\r\n        Channel storage _temp_channel = channel_list[_channel_id];\r\n        \r\n        require(\r\n            _temp_channel._current_status == Channel_Status.OPENED,\r\n            \"Channel with provided channel id is not opened\"\r\n        );\r\n\r\n        // assign values\r\n        _temp_channel._number_of_stakeholders--;\r\n        _temp_channel._stakeholders[_sender]._status = Stakeholder_Status.UNDEFINED;\r\n        _temp_channel._stakeholders[_sender]._balance = 0;\r\n        payable(_sender).transfer(_state[0]._balance);\r\n\r\n        emit LeaveChannelEvent(_channel_id, leave_token);\r\n    }\r\n\r\n}\r\n",
  "sourcePath": "C:\\Users\\blaz.podgorelec\\Documents\\blaz-github-repo\\phd-payment-channel-ethereum\\contracts\\PaymentChannel.sol",
  "compiler": {
    "name": "solc",
    "version": "0.8.16+commit.07a7930e.Emscripten.clang"
  },
  "schemaVersion": "3.4.9",
  "updatedAt": "2023-02-09T19:17:13.754Z",
  "networkType": "ethereum",
  "devdoc": {
    "kind": "dev",
    "methods": {
      "owner()": {
        "details": "Returns the address of the current owner."
      },
      "renounceOwnership()": {
        "details": "Leaves the contract without owner. It will not be possible to call `onlyOwner` functions anymore. Can only be called by the current owner. NOTE: Renouncing ownership will leave the contract without an owner, thereby removing any functionality that is only available to the owner."
      },
      "transferOwnership(address)": {
        "details": "Transfers ownership of the contract to a new account (`newOwner`). Can only be called by the current owner."
      }
    },
    "title": "Factory contract for creating new payment channels",
    "version": 1
  },
  "userdoc": {
    "kind": "user",
    "methods": {},
    "version": 1
  }
}